:100000000C945E000C9486000C9486000C94860080
:100010000C9486000C9486000C9486000C94860048
:100020000C9486000C9486000C9486000C94860038
:100030000C9486000C9486000C9486000C94860028
:100040000C94370D0C9486000C94A70D0C94810D24
:100050000C9486000C9486000C9486000C94860008
:100060000C9486000C948600000000080002010039
:100070000003040700000000000000000000000072
:10008000250028002B0000000000240027002A0083
:10009000040404040404040402020202020203032E
:1000A0000303030301020408102040800102040836
:1000B0001020010204081020D90D841011241FBE45
:1000C000CFEFD8E0DEBFCDBF24E0A6EFB2E001C0A5
:1000D0001D92A336B207E1F712E0A0E0B1E0E6E33B
:1000E000F4E202C005900D92A63FB107D9F710E0E7
:1000F000CDE5D0E004C02197FE010E94CA10CC35A6
:10010000D107C9F70E94BB0E0C940E120C9400008C
:10011000E0E1F3E0A089B18982E08C93A485B58504
:100120001C92A685B78580E18C93108EA489B58931
:1001300086E08C93A289B3898C9180618C93A2898B
:10014000B3898C9188608C93A289B3898C918068E3
:100150008C930288F389E02D80818F7D80830895C0
:1001600090E0FC01EC55FF4F249180579F4FFC011C
:100170008491882399F090E0880F991FFC01EA5739
:10018000FF4FA591B491FC01E458FF4F85919491E4
:100190008FB7F894EC91E22BEC938FBF0895FC019C
:1001A00082818E7F828382818D7F828382818B7F19
:1001B000828313861486158616861782108611860A
:1001C0001286138214821582168212A211A214A220
:1001D00013A216A215A2178A108E118E128E0895E0
:1001E000FC0185A196A1892BD9F41092C2038BEB57
:1001F00093E096A385A38091BB039091BC03892BC8
:1002000081F4F093BC03E093BB0312A211A214A2E9
:1002100013A2F093BE03E093BD0381E08093C20379
:100220000895A091BD03B091BE03B2A3A1A394967B
:10023000FC93EE939397EBCF8CBD9DBD089590E01A
:10024000FC01E859FF4F2491FC01EC55FF4F34911C
:10025000FC01E057FF4FE491EE23C9F0222339F06F
:10026000233001F1A8F4213019F1223029F1F0E016
:10027000EE0FFF1FE458FF4FA591B4918FB7F8948C
:10028000EC91611126C030953E233C938FBF0895B9
:100290002730A9F02830C9F0243049F78091800038
:1002A0008F7D03C0809180008F7780938000DFCFA7
:1002B00084B58F7784BDDBCF84B58F7DFBCF8091F4
:1002C000B0008F778093B000D2CF8091B0008F7D47
:1002D000F9CF3E2BDACF3FB7F89480910C03909181
:1002E0000D03A0910E03B0910F0326B5A89B05C086
:1002F0002F3F19F00196A11DB11D3FBFBA2FA92FA5
:10030000982F8827BC01CD01620F711D811D911DA1
:1003100042E0660F771F881F991F4A95D1F708950D
:100320008F929F92AF92BF92CF92DF92EF92FF9205
:100330004B015C010E946B016B017C010E946B010F
:100340006C197D098E099F09683E734081059105EE
:10035000A8F321E0821A9108A108B10888EEC80E1E
:1003600083E0D81EE11CF11C81149104A104B104A6
:1003700029F7FF90EF90DF90CF90BF90AF909F90C4
:100380008F9008952FB7F894609108037091090336
:1003900080910A0390910B032FBF0895CF93DF93B1
:1003A000EC014B835C836D837E838B819C81AD816B
:1003B000BE818F839887A987BA870E94C2016B8705
:1003C0007C878D879E87DF91CF910895AF92BF92F2
:1003D000CF92DF92EF92FF920F931F93CF93DF9311
:1003E0006C017B018B01040F151FEB015E01AE1840
:1003F000BF08C017D10759F06991D601ED91FC9162
:100400000190F081E02DC6010995892B79F7C5018E
:10041000DF91CF911F910F91FF90EF90DF90CF90E0
:10042000BF90AF900895FC01538D448D252F30E08F
:10043000842F90E0821B930B541710F0CF960895F1
:1004400001970895FC01918D828D981761F0A28D1E
:10045000AE0FBF2FB11D5D968C91928D9F5F9F73E4
:10046000928F90E008958FEF9FEF0895FC01918D9A
:10047000828D981731F0828DE80FF11D858D90E007
:1004800008958FEF9FEF0895FC01918D228D892FA4
:1004900090E0805C9F4F821B91098F73992708958C
:1004A00080E193E00E94440221E0892B09F420E0DE
:1004B000822F089580E090E0892B29F00E9450025D
:1004C00081110C9400000895FC01A48DA80FB92F90
:1004D000B11DA35ABF4F2C91848D90E001968F736C
:1004E0009927848FA689B7892C93A089B1898C918B
:1004F000837080648C93938D848D981306C00288DA
:10050000F389E02D80818F7D80830895EF92FF92A3
:100510000F931F93CF93DF93EC0181E0888F9B8D26
:100520008C8D98131AC0E889F989808185FF15C0E0
:100530009FB7F894EE89FF896083E889F989808103
:100540008370806480839FBF81E090E0DF91CF91D2
:100550001F910F91FF90EF900895F62E0B8D10E0F4
:100560000F5F1F4F0F731127E02E8C8D8E110CC063
:100570000FB607FCFACFE889F989808185FFF5CFAE
:10058000CE010E946402F1CFEB8DEC0FFD2FF11D27
:10059000E35AFF4FF0829FB7F8940B8FEA89FB89EB
:1005A00080818062CFCFCF93DF93EC01888D882349
:1005B000B9F0AA89BB89E889F9898C9185FD03C0C6
:1005C000808186FD0DC00FB607FCF7CF8C9185FFAB
:1005D000F2CF808185FFEDCFCE010E946402E9CF8A
:1005E000DF91CF910895DB014330C8F0FC01848591
:1005F00043E050E0481B510920E0822F90E084172F
:100600009507ECF43C912330B0F4875E9E4FFC01DB
:100610009081832F892389F0909593230AC02C9190
:10062000E42FF0E0E75EFE4F9081822F89239095C2
:1006300092239C93089590E0ECCF2F5FDECF80E073
:100640000895FB019081892F817090FF03C09E7FE8
:1006500090830895892F82709C7FFACF08958EBD74
:1006600000000DB407FEFDCF8EB508952F923F9286
:100670004F925F926F927F928F929F92AF92BF92B2
:10068000CF92DF92EF92FF920F931F93CF93DF935E
:1006900000D000D0CDB7DEB73C01962E5A0119012B
:1006A000280160E0FC0180850E941F01892D0E94C5
:1006B0002F038E010F5F1F4F4E01F5E08F0E911C2F
:1006C00080E00E942F03F80181938F01E815F9055E
:1006D000B9F72A818981F8E08F9FC0011124422F48
:1006E00050E065E0559547956A95E1F7840F951FB1
:1006F000092E000CAA0BBB0BF50180839183A2830A
:10070000B383F101108223FF3AC0F501808191810A
:10071000A281B38132E0880F991FAA1FBB1F3A95AF
:10072000D1F72370820F911DA11DB11D808391838C
:10073000A283B38380819181A281B381BA2FA92F33
:10074000982F88272B81820F911DA11DB11D8083B9
:100750009183A283B38380819181A281B381BA2FD7
:10076000A92F982F88272C81820F911DA11DB11DC3
:1007700080839183A283B38381E0F101808380E051
:100780000E942F03982F9F70F701908386FB882784
:1007900080F9F201808310E000E0F7018081081702
:1007A00070F40830110559F05601A00EB11E80E01A
:1007B0000E942F03F50180830F5F1F4FEECF61E092
:1007C000F30180850F900F900F900F90DF91CF91E4
:1007D0001F910F91FF90EF90DF90CF90BF90AF905F
:1007E0009F908F907F906F905F904F903F902F9051
:1007F0000C941F016F927F928F929F92AF92BF9243
:10080000CF92DF92EF92FF920F931F93CF93DF93DC
:10081000EC015A014901380160FF23C060E9CE01B3
:100820000E943603F30180818F83F40180818A83E3
:10083000F50180819181A281B3818B839C83AD83FB
:10084000BE8380E0DF91CF911F910F91FF90EF90D9
:10085000DF90CF90BF90AF909F908F907F906F90E0
:10086000089561FF02C064E9DACFF701108284E0E5
:10087000E9CF6F927F928F929F92AF92BF92CF9269
:10088000DF92EF92FF920F931F93CF93DF9300D0ED
:1008900000D0CDB7DEB74C01162F902F02E46134A3
:1008A00039F004E4613521F000E4613309F000E03F
:1008B00080E4E11001C080E0DC2CD82A913009F0FE
:1008C00047C02C833B839A0144275527822F83708E
:1008D0008860922F990F990F990F907E892B8A83A8
:1008E00075E0369527957A95E1F7298380E590E0C4
:1008F0000E941C0160E0F40180850E941F01802F8E
:100900000E942F03CE0101967C013E0195E0690E05
:10091000711CF70181917F010E942F03E614F704F7
:10092000C1F78D2D0E942F03D12CF12CE12CCE1478
:10093000DF04E1F0F8E0EF16F104C1F0F501EE0D8F
:10094000FF1D80810E942F038FEFE81AF80AEFCF76
:10095000C90133E0969587953A95E1F78983229509
:10096000220F207E2A831C821B82C0CF61E0F4010B
:1009700080850E941F0180E590E00E941C0160E0DC
:10098000F40180850E941F0182E8113439F084E867
:10099000113521F081E8113309F080E00E942F0326
:1009A00061E0F40180850F900F900F900F90DF9120
:1009B000CF911F910F91FF90EF90DF90CF90BF905C
:1009C000AF909F908F907F906F900C941F01DF925B
:1009D000EF92FF920F931F93CF93DF9300D000D03D
:1009E000CDB7DEB77C01D62E413009F040C00C8374
:1009F0001B83890122273327802F83708860902FE3
:100A0000990F990F990F907E892B8A8355E016953F
:100A100007955A95E1F7098380E590E00E941C0153
:100A200060E0F70180850E941F0182E00E942F0391
:100A30008D2D0E942F0389810E942F038A810E949D
:100A40002F038B810E942F038C810E942F0361E072
:100A5000F70180850F900F900F900F90DF91CF914D
:100A60001F910F91FF90EF90DF900C941F01C80130
:100A700023E0969587952A95E1F789830295000FE3
:100A8000007E0A831C821B82C7CF1F93CF93DF9304
:100A9000EC0180E590E00E941C0160E088850E94E6
:100AA0001F0180EA0E942F0380E00E942F03182F6D
:100AB00061E088850E941F01812FDF91CF911F91F6
:100AC00008950E944505837011F484E0089583E041
:100AD00008950E944505982F9B7A292F30E095951F
:100AE0009595959590718370982BA901559547958B
:100AF0004470942B35952795359527952870892F27
:100B0000822B0895FF920F931F93CF93DF93EC01F5
:100B1000F62E042F122F80E590E00E941C0160E069
:100B200088850E941F0185E00E942F038F2D0E945F
:100B30002F03802F0E942F03812F0E942F0361E03B
:100B40008885DF91CF911F910F91FF900C941F0129
:100B5000662321F0613061F080E0089520E14130AA
:100B600009F020E040E16CE00E94820581E00895F8
:100B700020E2413009F020E040E2F5CF462F4C71F1
:100B800021F020E06CE20C94820508954F925F9270
:100B90006F927F92AF92BF92CF92EF920F931F937B
:100BA000CF93DF93ECEFE60FED3010F5F0E0EA5F66
:100BB000FE4F10811123E1F029013A01462FEC018B
:100BC00020E06CE20E948205A3019201612FCE0118
:100BD0000E94390480E0DF91CF911F910F91EF9037
:100BE000CF90BF90AF907F906F905F904F9008959F
:100BF00082E0F1CF0F931F93CF93DF93EC018B0132
:100C00000E9445058475F8011082843591F19C8518
:100C100063E070E0691B710990E0292F30E026172E
:100C200037073CF54FEF933020F4F901EA5EFE4FB1
:100C300040814823E1F480E5933020F4F901ED5E32
:100C4000FE4F80818F5FF801808340E0933020F475
:100C5000275E3E4FF901408120E06CE2CE010E9408
:100C6000820580E0DF91CF911F910F9108959F5FE2
:100C7000D4CF82E0F7CF4F925F926F927F928F92A4
:100C80009F92AF92BF92CF92DF92EF920F931F93FA
:100C9000CF93DF931F92CDB7DEB74C012A013B0102
:100CA000122F82E08A15C8F11982C4010E944505FD
:100CB0002A2D30E0F901EA5EFE4F9081892391F000
:100CC00082E00F90DF91CF911F910F91EF90DF9015
:100CD000CF90BF90AF909F908F907F906F905F90DC
:100CE0004F900895F901ED5EFE4F80818F5F8983FB
:100CF000F901E75EFE4F20E040816CE2C4010E94F2
:100D000082055601CE2CE02E012FA30192016981AC
:100D1000C4010E94390480E0D4CFBE016F5F7F4FD1
:100D2000C4010E94FA05882361F3CACF20E0611153
:100D300020E440E46BE20C9482050F931F93CF9361
:100D4000DF93EC01062F142F80E590E00E941C0138
:100D500060E088850E941F0182E00E942F03802F9F
:100D60000E942F03812F0E942F0361E08885DF916D
:100D7000CF911F910F910C941F011F93CF93DF937D
:100D8000EC01162F80E590E00E941C0160E0888550
:100D90000E941F0183E00E942F03812F0E942F03D6
:100DA00080E00E942F03182F61E088850E941F01B8
:100DB000812FDF91CF911F9108956230D1F030F4EF
:100DC000662351F0613071F080E008956330C1F026
:100DD0006430D1F76DE007C06CE00E94BD068295DB
:100DE000817008956CE00E94BD0685FB882780F91C
:100DF00008956DE00E94BD0683FB882780F9089561
:100E00006DE0EBCFCF93DF93EB016DE20E94BD0667
:100E1000209709F08883887F09F085E0DF91CF91E2
:100E200008952F923F924F925F926F927F928F928E
:100E30009F92AF92BF92CF92DF92EF92FF920F9369
:100E40001F93CF93DF931F92CDB7DEB74C012A01DA
:100E50003B01222E302EFA2CFC0143825482658203
:100E600076822283078310E000E093E2A92EB12C62
:100E7000BE016F5F7F4FC4010E94FA050F5F1F4FD5
:100E8000823049F40233110511F486E014C0C50123
:100E90000197F1F7EDCF02331105B9F35601CE2CCE
:100EA000E32C022DA30192016981C4010E9439043F
:100EB000F11026C080E00F90DF91CF911F910F912C
:100EC000FF90EF90DF90CF90BF90AF909F908F906A
:100ED0007F906F905F904F903F902F900895C70143
:100EE0000197F1F70F5F1F4F69816150C4010E94A4
:100EF000BD0683FF0BC00233110589F787E0DBCF06
:100F000010E000E083E2E82EF12CECCF0233110573
:100F100089F6F4CFAF92CF92DF92EF920F930E94B7
:100F200011070F91EF90DF90CF90AF9008951F932E
:100F3000CF93DF93EC01162F6BE20E94BD06482F82
:100F4000112341F04C616BE2CE01DF91CF911F91F3
:100F50000C949D06437EF7CFCF92DF92EF92FF92E3
:100F60001F93CF93DF93EC01162F0E94C2016B01F8
:100F70007C01212F40EE6FE0CE010E9482056EE0E1
:100F8000CE010E94BD06807E1817A1F00E94C2010A
:100F90006C197D098E099F09693C710581059105D0
:100FA00040F381E0DF91CF911F91FF90EF90DF90B0
:100FB000CF90089580E0F6CF0F931F93CF93DF93E8
:100FC000EC01162FE881F9810488F589E02D099557
:100FD000803221F5103211F16BE2CE010E94BD0684
:100FE000082F007486FD06C020E440E46BE2CE01C9
:100FF0000E94820520E440E46CE2CE010E9482055A
:1010000060E6CE010E94AC07811116C0011106C036
:1010100020E040E46BE2CE010E94820520E040E443
:101020006CE2CE010E948205612FCE01DF91CF914B
:101030001F910F910C94AC0781E0DF91CF911F912C
:101040000F9108951F93CF93DF93EC01142F62301B
:10105000D9F130F46623A9F0613049F110E01FC0E6
:10106000633009F453C06430C9F760E80E94DC07BC
:1010700081112FC0113009F457C01330A9F520E0B9
:1010800054C0413089F020F0423041F724E00DC0D7
:1010900020E044E06CE0CE010E94820511E0812F47
:1010A000DF91CF911F91089525E045E0F3CF4130C6
:1010B00041F020F0423091F628E004C020E048E002
:1010C000E9CF2AE04AE0E6CF60E80E94DC07882307
:1010D00039F06AE070E080E090E00E949001BECFBD
:1010E000113021F0133081F010E007C021E041E021
:1010F0006DE0CE010E94820511E06B85CE010E9459
:10110000DC07882361F2E5CF20E0F1CF60E80E94A0
:10111000DC078111DECF113021F0133029F720E0F8
:1011200001C022E042E0E4CF24E044E0E1CF8F922E
:101130009F92AF92BF92EF92FF920F931F93CF9324
:10114000DF93EC01F62EE42E480159016AE070E0CD
:1011500080E090E00E94900160E8CE010E94DC07F0
:10116000182F882391F06AE070E080E090E00E9400
:101170009001812FDF91CF911F910F91FF90EF9000
:10118000BF90AF909F908F90089582E0F81639F14C
:101190008F1558F0FF20B1F081E0F816D9F06B857B
:1011A000CE010E94DC07182FDECF84E0F81609F18B
:1011B000F816D0F085E0F812F2CF950184014E2D9B
:1011C00068E104C0950184014E2D60E0CE010E94CB
:1011D000E704E5CF950184014E2D64E0F7CF95013A
:1011E00084014E2D68E0F2CF950184014E2D60E11F
:1011F000EDCF950184014E2D64E1E8CF8F929F924F
:10120000AF92BF92EF92FF920F931F93CF93DF9312
:10121000EC01E62EF42E480159016AE070E080E00E
:1012200090E00E94900160E8CE010E94DC07182F38
:10123000882391F06AE070E080E090E00E949001E5
:10124000812FDF91CF911F910F91FF90EF90BF9071
:10125000AF909F908F900895E1100DC0950184018B
:101260004F2D60E2CE010E94E7046B85CE010E9403
:10127000DC07182FDFCF81E0E812F7CF950184015A
:101280004F2D64E2EFCFEF92FF921F93CF93DF9346
:101290007C01C42FD22F1FB7F894809106038111CF
:1012A00024C0EAE9F0E08491EEEAF0E09491E82FBE
:1012B000F0E0EE0FFF1FEA57FF4FA591B491EC91BC
:1012C000E92321F461E08AE00E941F018AE00E9484
:1012D000B0008CB580618CBD8CB580648CBD8DE018
:1012E0000E94B0008BE00E94B000809106038F5FE7
:1012F000809306031FBF80E590E00E941C0160E020
:10130000D70118968C910E941F0180EC0E942F0338
:1013100061E0F70180850E941F016AE070E080E0D3
:1013200090E00E94900160E8C7010E94DC07182F3E
:101330006AE070E080E090E0112361F00E9490018B
:1013400081E0111101C080E0DF91CF911F91FF90EA
:10135000EF9008950E949001D23009F4ADC0D330CF
:1013600009F4F3C0D13009F07AC0C150C33108F09C
:1013700076C0EC2FF0E0E154F64F0C94CA10E40A6A
:10138000EF0AD209F20AD609D909DD09340A370A67
:101390003B0A3E0A410A440A470A4B0A4F0A520ACC
:1013A000550A590AC7E8DFEF1FE00AC0C5E8D1EFC8
:1013B000FBCFC7E0DEEB19E003C0C7E8DFEF17E0C3
:1013C000412F6AE2C7010E949D064D2F69E2C701C5
:1013D0000E949D064C2F68E2C7010E949D066AE0AC
:1013E00070E080E090E00E949001C0E340E06C2F4C
:1013F000C7010E949D0660E16C0F40E0C7010E949A
:101400009D0660E26C0F40E0C7010E949D06CF5F21
:10141000CE3361F740E060E6C7010E949D0640E0E0
:1014200060E7C7010E949D0643E06BE2C7010E948E
:101430009D0624E044E660E6C7010E94820520E0A4
:1014400040E660E7C7010E948205D701ED91FC915B
:101450000288F389E02D60E0C7010995182F6AE042
:1014600070E080E090E06ACFC7E8DAEFA8CFC7E885
:10147000DFEF13E0A5CFC7E0DEEBFBCFC7E0DDEA8F
:10148000F8CFC7E8DAEFF5CFC6E8D0EFF2CFC7E87C
:10149000DAEF11E095CFC5E8D1EF11E491CFC6E8BE
:1014A000D0EF8ECFC4E0D0EA8BCFC2E0D2E910E417
:1014B00087CFC2E8D0ED84CFC350C13180F6EC2F86
:1014C000F0E0EB59F54F0C94CA10E80AF50A760AD9
:1014D0007A0A7E0A810A850A890A8C0A900A930A86
:1014E000960A990A9C0A9F0A2F0AA20AC3E0DCEA1C
:1014F0001BE066CFC2E0D4EA1CE062CFC3E0D4EACE
:101500005ACFC4E0D6EB15E05BCFC3E0D4EA14E0D9
:1015100057CFC3E0D5EBADCFC4E0DEEB12E050CF48
:10152000C4E0D6EBFBCFC6E0DFEBB3CFC3E0D4EA39
:10153000B0CFC6E0DFEB44CFC2E0DBE941CFC1E092
:10154000D2E93ECFC1E0D8E83BCFC150C33108F06B
:1015500086CFEC2FF0E0E155F54F0C94CA10EB0A62
:10156000F80AC20A2F0AC50A2F0AC80ACB0ACE0AED
:101570002F0A2F0AD00AD30AD60AD90ADC0A2F0A60
:10158000DF0AE20AC7E0DFEB1ACFC4E0D4EA17CFE4
:10159000C7E0DFEB6ECFC6E0D4EB6BCFC7E0C4CFC4
:1015A000C6E0D4EB76CFC5E0D1EB73CFC6E0D4EB89
:1015B00007CFC5E0D1EB04CFC2E0D0E901CFC1E055
:1015C000D0E8FECEC0E0FCCFC7E8DFEF1FE3F8CEE7
:1015D000C5E0DFEB91CFC7E0DFEB1FE1F1CEC7E85D
:1015E000DFEFFBCFC7E0DAEBDFCEC4E0D6EB80CF96
:1015F000C7E0DFEBD9CE603211F0FC0163870C94B9
:10160000DC07CF93DF93EC01E881F9810488F58949
:10161000E02D09956B85681729F0CE01DF91CF91F8
:101620000C94DC0780E0DF91CF910895CF93DF9396
:10163000EC01E881F9810488F589E02D0995803273
:1016400031F060E2CE01DF91CF910C94DC0780E0B5
:10165000DF91CF9108956EE00E94BD06807E0895CF
:101660000F931F93CF93DF93DC015F96ED91FC9175
:10167000309781F0EC01ADA1BEA114960D911C91A3
:10168000159715969C938E9314970995EDA1FEA13D
:1016900015830483DF91CF911F910F91089580E40A
:1016A00080937C0080917A00806480937A0080919E
:1016B0007A0086FDFCCF80917800909179006FEFE1
:1016C00073E00E9494102CEB32E0629FC001639F94
:1016D000900D729F900D112493709093000380934E
:1016E000010308950F931F93CF93DF93FC01A5A1EE
:1016F000B6A1109709F444C0EC01178A108E118E20
:10170000128E82818B7F8283058CF68DE02D30973F
:1017100099F18A8181FD30C014960D911C91159725
:101720001596DC93CE9314978A8182608A830995FB
:101730009A8180FB90F99A838A818D7F8A83EDA1BB
:10174000FEA1158304830E94C2010B811C812D819F
:101750003E810F83188729873A87601B710B820BA4
:10176000930B6B877C878D879E878A818170DF9141
:10177000CF911F910F9108958A8181608A83E3CF71
:1017800080E0F5CFCF93DF93EC0182EA91E099837B
:1017900088838A8180FF0CC09A818A818E7F8A83A8
:1017A0008A818D7F8A8390FF03C0CE010E94300B17
:1017B000EDA1FEA1309789F017821EA21DA2A9A15A
:1017C000BAA18BA19CA1109799F4009749F41182BA
:1017D00010821382128281E08783DF91CF91089576
:1017E000DC0192961C921E92919791838083F3CF95
:1017F000009739F494961C921E929397B383A28318
:10180000EACF94969C938E9393970BA0DCA1C02D66
:10181000BAA3A9A3E0CFAF92BF92CF92DF92EF928B
:10182000FF920F931F93CF93DF93EC017B016A012B
:10183000E881F981A28CB38C00A4F1A5E02D099573
:101840008E01095F1F4F9E012E5F3F4FAE014D5F1E
:101850005F4F682FCE01F5010995DF91CF911F9160
:101860000F91FF90EF90DF90CF90BF90AF900895D1
:101870008F929F92AF92BF92CF92DF92EF92FF92A0
:101880000F931F93CF93DF93EC014B017A01690112
:10189000E881F981A28CB38C00A4F1A5E02D099513
:1018A0008E01095F1F4F9E012E5F3F4FA401682FDD
:1018B000CE01F5010995DF91CF911F910F91FF9016
:1018C000EF90DF90CF90BF90AF909F908F90089552
:1018D00082E00895633008F062E0FC0164870895B7
:1018E000FC0101900020E9F73197AF01481B590B2B
:1018F000BC0180E193E00C94E601CF92DF92EF927D
:10190000FF920F931F93CF93DF93CDB7DEB7A197CD
:101910000FB6F894DEBF0FBECDBF9B01AC0119A27C
:101920008E010F5D1F4F8AE0C82ED12CE12CF12CC7
:10193000CA01B901A70196010E94A810605DF801D3
:1019400062938F01211531054105510589F73097C3
:10195000C9F0CF010E94700C8C0186EA91E00E94D0
:10196000700C800F911FA1960FB6F894DEBF0FBECA
:10197000CDBFDF91CF911F910F91FF90EF90DF903E
:10198000CF90089510E000E0E8CFCF93DF930E945E
:10199000700CEC0186EA91E00E94700C8C0F9D1F88
:1019A000DF91CF910895AF92CF92DF92EF920F9394
:1019B000AA24A3948EEFC82E82E0D82E98E0E92EB8
:1019C00000E020E04DE650E060E070E08EEA93E059
:1019D0000E94110789EA91E00E94C50C80EC91E019
:1019E0000E94700C0E94C2010F91EF90DF90CF9087
:1019F000AF900C947D0CAF92CF92DF92EF920F9349
:101A0000AA24A39486EFC82E82E0D82E98E0E92E6F
:101A100000E020E040E055E060E070E08EEA93E016
:101A20000E94110789EA91E00E94C50C8AEC91E0BE
:101A30000E94700C0E94C2010F91EF90DF90CF9036
:101A4000AF900C947D0C83ED91E00E94700C0E948D
:101A5000C2010C947D0C0E940912CF93DF93EC011C
:101A60000E94C20BCE01DF91CF910C9480111F9286
:101A70000F920FB60F9211242F933F938F939F9342
:101A8000AF93BF938091080390910903A0910A033B
:101A9000B0910B033091070323E0230F2D3758F546
:101AA0000196A11DB11D2093070380930803909315
:101AB0000903A0930A03B0930B0380910C03909148
:101AC0000D03A0910E03B0910F030196A11DB11D4E
:101AD00080930C0390930D03A0930E03B0930F0318
:101AE000BF91AF919F918F913F912F910F900FBE1A
:101AF0000F901F90189526E8230F0296A11DB11D87
:101B0000D2CF1F920F920FB60F9211242F933F93B3
:101B10004F935F936F937F938F939F93AF93BF93F5
:101B2000EF93FF9380E193E00E946402FF91EF91B5
:101B3000BF91AF919F918F917F916F915F914F91E5
:101B40003F912F910F900FBE0F901F9018951F92ED
:101B50000F920FB60F9211242F938F939F93EF93B1
:101B6000FF93E0912003F09121038081E09126030F
:101B7000F091270382FD1BC09081809129038F5F24
:101B80008F7320912A03821741F0E0912903F0E03E
:101B9000E05FFC4F958F80932903FF91EF919F9118
:101BA0008F912F910F900FBE0F901F9018958081ED
:101BB000F4CFCF92DF92EF92FF920F931F93CF93C8
:101BC000DF93E0E1F3E01382128288EE93E0A0E07D
:101BD000B0E084839583A683B78380E291E091830C
:101BE000808385EC90E09587848784EC90E09787EC
:101BF000868780EC90E0918B808B81EC90E0938BDA
:101C0000828B82EC90E0958B848B86EC90E0978BB6
:101C1000868B118E128E138E148EC8E3D4E002EAE6
:101C200011E019830883CE010E94CF0083E29DE07A
:101C30009C8F8B8F1E8E1D8E18A21F8E41E050E050
:101C400060E070E0CE010E94CE0181E090E0A0E073
:101C5000B0E08F87988BA98BBA8B8B8B9C8BAD8BCD
:101C6000BE8BC1E1D4E019830883CE010E94CF006E
:101C700083ED9CE09C8F8B8F1E8E1D8E18A21F8E75
:101C80004AE050E060E070E0CE010E94CE01CC243A
:101C9000CA94DC2C7601CF86D88AE98AFA8ACB8A64
:101CA000DC8AED8AFE8ACAEED3E019830883CE016E
:101CB0000E94CF008BEF9CE09C8F8B8F1E8E1D8E21
:101CC00018A21F8E42E350E060E070E0CE010E9457
:101CD000CE01CF86D88AE98AFA8ACB8ADC8AED8A55
:101CE000FE8AC3ECD3E019830883CE010E94CF00A3
:101CF0008FE49BE09C8F8B8F1E8E1D8E18A21F8EF3
:101D000048EE53E060E070E0CE010E94CE01CF8645
:101D1000D88AE98AFA8ACB8ADC8AED8AFE8AEBEBDA
:101D2000F3E01782118210821382128215821482CC
:101D3000168281E08783CEEAD3E082E391E0998343
:101D400088838DEA93E09A87898789E088870E9453
:101D5000B00061E088850E941F018AE691E09983C6
:101D600088831C86DF91CF911F910F91FF90EF9098
:101D7000DF90CF900895CF93DF93CDB7DEB729974B
:101D80000FB6F894DEBF0FBECDBF789484B58260E5
:101D900084BD84B5816084BD85B5826085BD85B50F
:101DA000816085BD80916E00816080936E0010928D
:101DB0008100809181008260809381008091810008
:101DC0008160809381008091800081608093800099
:101DD0008091B10084608093B1008091B0008160F7
:101DE0008093B00080917A00846080937A00809123
:101DF0007A00826080937A0080917A00816080937B
:101E00007A0080917A00806880937A001092C100F5
:101E10000E9488008FED91E00E94C50C1092C203D1
:101E20001092BC031092BB031092BE031092BD032C
:101E30001092C0031092BF031092C10381E08093FF
:101E4000C2038EEE91E00E94C50C81E194E00E94F5
:101E5000F00084E092E00E94C50C8AEE93E00E94BC
:101E6000F00082E192E00E94C50C83EC93E00E94B6
:101E7000F0008FE192E00E94C50C88E394E00E949C
:101E8000F0008BE292E00E94C50C68EE73E080E007
:101E900090E00E94900181E194E00E94720B8BE33C
:101EA00092E00E94C50C8AEE93E00E94720B8AE5D4
:101EB00092E00E94C50C83EC93E00E94720B87E7CE
:101EC00092E00E94C50C88E394E00E94720B82E9C4
:101ED00092E00E94C50C0E94880021E040E150E0A1
:101EE00060E070E08EEA93E00E944309882379F075
:101EF00084EB92E00E94C50C8DEC92E00E94C50C30
:101F000064E670E080E090E00E949001E6CF0FEF81
:101F100013E020E030E040E060E08EEA93E00E94D1
:101F2000FE080FEF13E020E030E040E061E08EEAD1
:101F300093E00E94FE080BE610E020E030E040E075
:101F400060E08EEA93E00E94970801E316E020E04B
:101F500030E040E061E08EEA93E00E94970801E201
:101F600016E020E030E040E062E08EEA93E00E947C
:101F7000970800E316E020E030E040E063E08EEAFE
:101F800093E00E9497080BE711E020E030E040E08A
:101F900064E08EEA93E00E94970888EE92E00E9447
:101FA000C50C00E010E08EEA93E00E9461058330EA
:101FB00089F48EEA93E00E946105833059F4AE0102
:101FC0004F5F5F4FBE01675F7F4F8EEA93E00E94D5
:101FD0000B0CEFCF8091BB039091BC039093C00397
:101FE0008093BF038091C203882309F481C080914C
:101FF000C10381117DC0E091BF03F091C003309710
:1020000009F476C0E3A0F4A0828180FF14C0878524
:102010009089A189B289892B8A2B8B2B89F4928193
:1020200082818E7F828382818D7F828390FF03C035
:10203000CF010E94300BF092C003E092BF03D7CFD4
:102040000E94C201E091BF03F091C003238134815B
:102050004581568143845484658476848780908446
:10206000A184B284DC01CB0184199509A609B709C2
:1020700088159905AA05BB05F0F287859089A18985
:10208000B289181619061A061B065CF48785908912
:10209000A189B2890197A109B1098787908BA18B8A
:1020A000B28B8789908DA18DB28D0196A11DB11D36
:1020B000878B908FA18FB28F87819085A185B28504
:1020C00083849484A584B684880D991DAA1DBB1DA4
:1020D00083879487A587B687278330874187528770
:1020E000038CF48DE02D309709F4A5CF0995A3CF8B
:1020F0000115110509F457CF0E945002882309F4F5
:1021000052CF0E9400004FCF83EC93E00E94C20B9D
:102110008AEE93E00E94C20B81E194E00E94C20B20
:1021200088E394E00C94C20B97FB072E16F40094FE
:1021300007D077FD09D00E94D01007FC05D03EF4EF
:10214000909581959F4F0895709561957F4F089563
:10215000A1E21A2EAA1BBB1BFD010DC0AA1FBB1FAB
:10216000EE1FFF1FA217B307E407F50720F0A21B1D
:10217000B30BE40BF50B661F771F881F991F1A948A
:1021800069F760957095809590959B01AC01BD01B4
:10219000CF010895EE0FFF1F0590F491E02D0994F3
:1021A000AA1BBB1B51E107C0AA1FBB1FA617B7077D
:1021B00010F0A61BB70B881F991F5A95A9F7809599
:1021C0009095BC01CD0108950F931F93CF93DF939A
:1021D0008230910510F482E090E0E0916104F0918A
:1021E000620430E020E0B0E0A0E0309799F42115DF
:1021F000310509F44AC0281B390B24303105D8F5C4
:102200008A819B816115710589F1FB01938382832A
:10221000FE0111C040815181028113814817590785
:10222000E0F04817590799F4109761F012960C9353
:10223000129713961C933296CF01DF91CF911F9185
:102240000F9108950093610410936204F4CF211557
:10225000310551F04217530738F0A901DB019A010B
:10226000BD01DF01F801C1CFEF01F9CF9093620406
:1022700080936104CDCFFE01E20FF31F8193919310
:102280002250310939832883D7CF20915F043091C0
:102290006004232B41F4209102013091030130931B
:1022A000600420935F042091000130910101211509
:1022B000310541F42DB73EB740910401509105011D
:1022C000241B350BE0915F04F0916004E217F307E3
:1022D000A0F42E1B3F0B2817390778F0AC014E5F96
:1022E0005F4F2417350748F04E0F5F1F509360046F
:1022F00040935F04819391939FCFF0E0E0E09CCF07
:10230000CF93DF930097E9F0FC013297138212829A
:10231000A0916104B0916204ED0130E020E01097DB
:10232000A1F420813181820F931F20915F043091AD
:1023300060042817390709F061C0F0936004E09346
:102340005F04DF91CF910895EA01CE17DF07E8F52A
:102350004A815B819E0141155105B1F7E901FB837B
:10236000EA8349915991C40FD51FEC17FD0761F419
:10237000808191810296840F951FE901998388835A
:10238000828193819B838A83F0E0E0E012968D91B5
:102390009C9113970097B9F52D913C911197CD0120
:1023A0000296820F931F20915F04309160042817DA
:1023B000390739F6309751F5109262041092610492
:1023C000B0936004A0935F04BCCFD383C2834081E9
:1023D0005181840F951FC817D90761F44E5F5F4F75
:1023E00088819981480F591F518340838A819B813D
:1023F000938382832115310509F0B0CFF0936204F5
:10240000E09361049ECFFD01DC01C0CF13821282F4
:10241000D7CF81E090E0F8940C940E1210E0CDE557
:10242000D0E004C0FE010E94CA102196CE35D1072B
:06243000C9F7F894FFCF8C
:10243600000063048000310000004100000000003D
:102446000000513040500410400408100000000005
:102456008602E6011302D30244022202360200007B
:1024660000002B0D2B0D2B0D2B0D2B0D2B0D2B0DDE
:102476002B0D2B0D2B0D2B0D2B0D2B0D2B0D2B0D96
:102486002B0D2B0D2B0D2B0D2B0D2B0D2B0D2B0D86
:102496002B0D2B0D2B0D0000000097076A0C680C06
:1024A6004309FE0897089606160B010BFB0A2B0B31
:1024B60002076105FA03380C0B0C3B06C6058A07B2
:1024C600BE0569052103F3022208A805DD06000002
:1024D6000000C20B2D0D0D0A0043414E20425553FC
:1024E6002073656E644D7367427566206F6B2100BD
:1024F600745F313030487A3A2000745F3230487A5F
:102506003A2000745F537461727475703A200053F8
:1025160063686564756C6572205445535400496E52
:10252600697469616C697A6564207363686564754A
:102536006C657200616464656420745F3130304894
:102546007A00616464656420745F3230487A0061A1
:102556006464656420745F35487A00616464656408
:1025660020745F5374617274757000456E61626C9D
:10257600656420745F313030487A206173203130D1
:1025860030487A204576656E7400456E61626C65EA
:102596006420745F3230487A206173203230487A82
:1025A600204576656E7400456E61626C65642074C4
:1025B6005F35487A2061732031487A204576656E0A
:1025C6007400456E61626C656420745F5374617259
:1025D6007475702061732053696E676C652045764B
:1025E600656E740043414E20425553205368696519
:1025F6006C6420696E6974206661696C0020496E9E
:1026060069742043414E2042555320536869656CD6
:102616006420616761696E0043414E20696E69748A
:06262600206F6B21000093
:00000001FF
